{
  "contractName": "Payroll",
  "abi": [
    {
      "constant": true,
      "inputs": [],
      "name": "totalSalary",
      "outputs": [
        {
          "name": "",
          "type": "uint256"
        }
      ],
      "payable": false,
      "stateMutability": "view",
      "type": "function"
    },
    {
      "constant": true,
      "inputs": [],
      "name": "owner",
      "outputs": [
        {
          "name": "",
          "type": "address"
        }
      ],
      "payable": false,
      "stateMutability": "view",
      "type": "function"
    },
    {
      "constant": true,
      "inputs": [
        {
          "name": "",
          "type": "address"
        }
      ],
      "name": "employees",
      "outputs": [
        {
          "name": "addrOfEmployee",
          "type": "address"
        },
        {
          "name": "salary",
          "type": "uint256"
        },
        {
          "name": "lastPayday",
          "type": "uint256"
        }
      ],
      "payable": false,
      "stateMutability": "view",
      "type": "function"
    },
    {
      "constant": true,
      "inputs": [],
      "name": "total_salary",
      "outputs": [
        {
          "name": "",
          "type": "uint256"
        }
      ],
      "payable": false,
      "stateMutability": "view",
      "type": "function"
    },
    {
      "constant": false,
      "inputs": [
        {
          "name": "newOwner",
          "type": "address"
        }
      ],
      "name": "transferOwnership",
      "outputs": [],
      "payable": false,
      "stateMutability": "nonpayable",
      "type": "function"
    },
    {
      "inputs": [],
      "payable": true,
      "stateMutability": "payable",
      "type": "constructor"
    },
    {
      "anonymous": false,
      "inputs": [
        {
          "indexed": true,
          "name": "previousOwner",
          "type": "address"
        },
        {
          "indexed": true,
          "name": "newOwner",
          "type": "address"
        }
      ],
      "name": "OwnershipTransferred",
      "type": "event"
    },
    {
      "constant": false,
      "inputs": [
        {
          "name": "employeeId",
          "type": "address"
        }
      ],
      "name": "partialPaid",
      "outputs": [],
      "payable": true,
      "stateMutability": "payable",
      "type": "function"
    },
    {
      "constant": false,
      "inputs": [
        {
          "name": "employeeId",
          "type": "address"
        },
        {
          "name": "salary",
          "type": "uint256"
        }
      ],
      "name": "addEmployee",
      "outputs": [],
      "payable": false,
      "stateMutability": "nonpayable",
      "type": "function"
    },
    {
      "constant": false,
      "inputs": [
        {
          "name": "employeeId",
          "type": "address"
        }
      ],
      "name": "removeEmployee",
      "outputs": [],
      "payable": false,
      "stateMutability": "nonpayable",
      "type": "function"
    },
    {
      "constant": false,
      "inputs": [
        {
          "name": "oldAddress",
          "type": "address"
        },
        {
          "name": "newAddress",
          "type": "address"
        }
      ],
      "name": "changePaymentAddress",
      "outputs": [],
      "payable": false,
      "stateMutability": "nonpayable",
      "type": "function"
    },
    {
      "constant": false,
      "inputs": [
        {
          "name": "employeeId",
          "type": "address"
        },
        {
          "name": "salary",
          "type": "uint256"
        }
      ],
      "name": "updateEmployee",
      "outputs": [],
      "payable": false,
      "stateMutability": "nonpayable",
      "type": "function"
    },
    {
      "constant": false,
      "inputs": [],
      "name": "addFund",
      "outputs": [
        {
          "name": "",
          "type": "uint256"
        }
      ],
      "payable": true,
      "stateMutability": "payable",
      "type": "function"
    },
    {
      "constant": true,
      "inputs": [],
      "name": "calculateRunway",
      "outputs": [
        {
          "name": "",
          "type": "uint256"
        }
      ],
      "payable": false,
      "stateMutability": "view",
      "type": "function"
    },
    {
      "constant": true,
      "inputs": [],
      "name": "hasEnoughFund",
      "outputs": [
        {
          "name": "",
          "type": "bool"
        }
      ],
      "payable": false,
      "stateMutability": "view",
      "type": "function"
    },
    {
      "constant": false,
      "inputs": [],
      "name": "getPaid",
      "outputs": [],
      "payable": false,
      "stateMutability": "nonpayable",
      "type": "function"
    }
  ],
  "bytecode": "0x608060405260006001556000600455336000806101000a81548173ffffffffffffffffffffffffffffffffffffffff021916908373ffffffffffffffffffffffffffffffffffffffff16021790555033600360006101000a81548173ffffffffffffffffffffffffffffffffffffffff021916908373ffffffffffffffffffffffffffffffffffffffff16021790555061118f8061009e6000396000f3006080604052600436106100d0576000357c0100000000000000000000000000000000000000000000000000000000900463ffffffff16806323fed09e146100d55780632e46eb1d146101045780634ec195121461012f5780635ce9c7ad1461015a5780635e91d8ec146101905780638da5cb5b146101dd578063a2f09dfa14610234578063bc456c4214610252578063cf41d6f8146102b5578063d0678947146102cc578063d108177a1461035d578063d3a7f961146103a0578063e7fd9a13146103cb578063f2fde38b14610418575b600080fd5b3480156100e157600080fd5b506100ea61045b565b604051808215151515815260200191505060405180910390f35b34801561011057600080fd5b5061011961046c565b6040518082815260200191505060405180910390f35b34801561013b57600080fd5b50610144610472565b6040518082815260200191505060405180910390f35b61018e600480360381019080803573ffffffffffffffffffffffffffffffffffffffff16906020019092919050505061049e565b005b34801561019c57600080fd5b506101db600480360381019080803573ffffffffffffffffffffffffffffffffffffffff169060200190929190803590602001909291905050506105d1565b005b3480156101e957600080fd5b506101f261076a565b604051808273ffffffffffffffffffffffffffffffffffffffff1673ffffffffffffffffffffffffffffffffffffffff16815260200191505060405180910390f35b61023c61078f565b6040518082815260200191505060405180910390f35b34801561025e57600080fd5b506102b3600480360381019080803573ffffffffffffffffffffffffffffffffffffffff169060200190929190803573ffffffffffffffffffffffffffffffffffffffff1690602001909291905050506107ae565b005b3480156102c157600080fd5b506102ca610a7f565b005b3480156102d857600080fd5b5061030d600480360381019080803573ffffffffffffffffffffffffffffffffffffffff169060200190929190505050610c25565b604051808473ffffffffffffffffffffffffffffffffffffffff1673ffffffffffffffffffffffffffffffffffffffff168152602001838152602001828152602001935050505060405180910390f35b34801561036957600080fd5b5061039e600480360381019080803573ffffffffffffffffffffffffffffffffffffffff169060200190929190505050610c6f565b005b3480156103ac57600080fd5b506103b5610ded565b6040518082815260200191505060405180910390f35b3480156103d757600080fd5b50610416600480360381019080803573ffffffffffffffffffffffffffffffffffffffff16906020019092919080359060200190929190505050610df3565b005b34801561042457600080fd5b50610459600480360381019080803573ffffffffffffffffffffffffffffffffffffffff169060200190929190505050610f9c565b005b600080610466610472565b11905090565b60015481565b60006004543073ffffffffffffffffffffffffffffffffffffffff163181151561049857fe5b04905090565b60008060008373ffffffffffffffffffffffffffffffffffffffff16141515156104c757600080fd5b600260008473ffffffffffffffffffffffffffffffffffffffff1673ffffffffffffffffffffffffffffffffffffffff168152602001908152602001600020915062278d006105298360020154420384600101546110f190919063ffffffff16565b81151561053257fe5b0490503073ffffffffffffffffffffffffffffffffffffffff1631811115151561055857fe5b4282600201819055508160000160009054906101000a900473ffffffffffffffffffffffffffffffffffffffff1673ffffffffffffffffffffffffffffffffffffffff166108fc829081150290604051600060405180830381858888f193505050501580156105cb573d6000803e3d6000fd5b50505050565b8173ffffffffffffffffffffffffffffffffffffffff16600260008473ffffffffffffffffffffffffffffffffffffffff1673ffffffffffffffffffffffffffffffffffffffff16815260200190815260200160002060000160009054906101000a900473ffffffffffffffffffffffffffffffffffffffff1673ffffffffffffffffffffffffffffffffffffffff1614151561066a57fe5b6106738261049e565b6106ca600260008473ffffffffffffffffffffffffffffffffffffffff1673ffffffffffffffffffffffffffffffffffffffff1681526020019081526020016000206001015460015461112c90919063ffffffff16565b6001819055506106ff6106ee670de0b6b3a7640000836110f190919063ffffffff16565b60015461114590919063ffffffff16565b600181905550610720670de0b6b3a7640000826110f190919063ffffffff16565b600260008473ffffffffffffffffffffffffffffffffffffffff1673ffffffffffffffffffffffffffffffffffffffff168152602001908152602001600020600101819055505050565b6000809054906101000a900473ffffffffffffffffffffffffffffffffffffffff1681565b60003073ffffffffffffffffffffffffffffffffffffffff1631905090565b8073ffffffffffffffffffffffffffffffffffffffff168273ffffffffffffffffffffffffffffffffffffffff16141515156107e957600080fd5b6000600260008373ffffffffffffffffffffffffffffffffffffffff1673ffffffffffffffffffffffffffffffffffffffff16815260200190815260200160002060000160009054906101000a900473ffffffffffffffffffffffffffffffffffffffff1673ffffffffffffffffffffffffffffffffffffffff1614151561086d57fe5b8173ffffffffffffffffffffffffffffffffffffffff16600260008473ffffffffffffffffffffffffffffffffffffffff1673ffffffffffffffffffffffffffffffffffffffff16815260200190815260200160002060000160009054906101000a900473ffffffffffffffffffffffffffffffffffffffff1673ffffffffffffffffffffffffffffffffffffffff1614151561090657fe5b600260008373ffffffffffffffffffffffffffffffffffffffff1673ffffffffffffffffffffffffffffffffffffffff168152602001908152602001600020600260008373ffffffffffffffffffffffffffffffffffffffff1673ffffffffffffffffffffffffffffffffffffffff1681526020019081526020016000206000820160009054906101000a900473ffffffffffffffffffffffffffffffffffffffff168160000160006101000a81548173ffffffffffffffffffffffffffffffffffffffff021916908373ffffffffffffffffffffffffffffffffffffffff1602179055506001820154816001015560028201548160020155905050600260008373ffffffffffffffffffffffffffffffffffffffff1673ffffffffffffffffffffffffffffffffffffffff168152602001908152602001600020600080820160006101000a81549073ffffffffffffffffffffffffffffffffffffffff02191690556001820160009055600282016000905550505050565b60008060003373ffffffffffffffffffffffffffffffffffffffff1614151515610aa857600080fd5b3373ffffffffffffffffffffffffffffffffffffffff16600260003373ffffffffffffffffffffffffffffffffffffffff1673ffffffffffffffffffffffffffffffffffffffff16815260200190815260200160002060000160009054906101000a900473ffffffffffffffffffffffffffffffffffffffff1673ffffffffffffffffffffffffffffffffffffffff16141515610b4157fe5b600260003373ffffffffffffffffffffffffffffffffffffffff1673ffffffffffffffffffffffffffffffffffffffff1681526020019081526020016000209150610b9c62278d00836002015461114590919063ffffffff16565b90504281101515610ba957fe5b8082600201819055508160000160009054906101000a900473ffffffffffffffffffffffffffffffffffffffff1673ffffffffffffffffffffffffffffffffffffffff166108fc83600101549081150290604051600060405180830381858888f19350505050158015610c20573d6000803e3d6000fd5b505050565b60026020528060005260406000206000915090508060000160009054906101000a900473ffffffffffffffffffffffffffffffffffffffff16908060010154908060020154905083565b8073ffffffffffffffffffffffffffffffffffffffff16600260008373ffffffffffffffffffffffffffffffffffffffff1673ffffffffffffffffffffffffffffffffffffffff16815260200190815260200160002060000160009054906101000a900473ffffffffffffffffffffffffffffffffffffffff1673ffffffffffffffffffffffffffffffffffffffff16141515610d0b57600080fd5b610d62600260008373ffffffffffffffffffffffffffffffffffffffff1673ffffffffffffffffffffffffffffffffffffffff1681526020019081526020016000206001015460015461112c90919063ffffffff16565b600181905550610d718161049e565b600260008273ffffffffffffffffffffffffffffffffffffffff1673ffffffffffffffffffffffffffffffffffffffff168152602001908152602001600020600080820160006101000a81549073ffffffffffffffffffffffffffffffffffffffff021916905560018201600090556002820160009055505050565b60045481565b60008110151515610e0357600080fd5b6000600260008473ffffffffffffffffffffffffffffffffffffffff1673ffffffffffffffffffffffffffffffffffffffff16815260200190815260200160002060000160009054906101000a900473ffffffffffffffffffffffffffffffffffffffff1673ffffffffffffffffffffffffffffffffffffffff16141515610e8a57600080fd5b6060604051908101604052808373ffffffffffffffffffffffffffffffffffffffff168152602001610ecd670de0b6b3a7640000846110f190919063ffffffff16565b815260200142815250600260008473ffffffffffffffffffffffffffffffffffffffff1673ffffffffffffffffffffffffffffffffffffffff16815260200190815260200160002060008201518160000160006101000a81548173ffffffffffffffffffffffffffffffffffffffff021916908373ffffffffffffffffffffffffffffffffffffffff1602179055506020820151816001015560408201518160020155905050610f92670de0b6b3a7640000820260015461114590919063ffffffff16565b6001819055505050565b6000809054906101000a900473ffffffffffffffffffffffffffffffffffffffff1673ffffffffffffffffffffffffffffffffffffffff163373ffffffffffffffffffffffffffffffffffffffff16141515610ff757600080fd5b600073ffffffffffffffffffffffffffffffffffffffff168173ffffffffffffffffffffffffffffffffffffffff161415151561103357600080fd5b8073ffffffffffffffffffffffffffffffffffffffff166000809054906101000a900473ffffffffffffffffffffffffffffffffffffffff1673ffffffffffffffffffffffffffffffffffffffff167f8be0079c531659141344cd1fd0a4f28419497f9722a3daafe3b4186f6b6457e060405160405180910390a3806000806101000a81548173ffffffffffffffffffffffffffffffffffffffff021916908373ffffffffffffffffffffffffffffffffffffffff16021790555050565b60008060008414156111065760009150611125565b828402905082848281151561111757fe5b0414151561112157fe5b8091505b5092915050565b600082821115151561113a57fe5b818303905092915050565b600080828401905083811015151561115957fe5b80915050929150505600a165627a7a723058204d4d76e51de135a89bda51fcc806c935c63b9d349a4aaa93534024c99f44fd2c0029",
  "source": "pragma solidity ^0.4.14;\n\nimport './SafeMath.sol';\nimport './Ownable.sol';\n\ncontract Payroll is Ownable {\n\n    using SafeMath for uint;\n\n    struct Employee {\n        // TODO, your code here\n        address addrOfEmployee;\n        uint salary;\n        uint lastPayday;\n    }\n\n    uint constant payDuration = 30 days;\n    uint public totalSalary = 0;\n    mapping(address => Employee) public employees;\n    address owner;\n    uint public total_salary = 0;\n\n    modifier noneAddress(address employeeId) {\n        require(employeeId != 0x0);\n        _;\n    }\n\n\n    function Payroll() payable public {\n        // TODO: your code here\n        owner = msg.sender;\n    }\n\n     function partialPaid(address employeeId) payable {\n        require(employeeId != 0x0);\n        Employee e = employees[employeeId];\n         uint partialdPaid = e.salary.mul(now - e.lastPayday)/payDuration;\n         assert(partialdPaid <= this.balance);\n         e.lastPayday = now;\n         e.addrOfEmployee.transfer(partialdPaid);\n\n    }\n\n    function addEmployee(address employeeId, uint salary) public {\n        // TODO: your code here\n        require(salary >= 0);\n        require(employees[employeeId].addrOfEmployee == 0x0);\n        employees[employeeId] = Employee(employeeId,salary.mul(1 ether),now);\n        totalSalary = totalSalary.add(salary * 1 ether);\n    }\n\n    function removeEmployee(address employeeId) public {\n        // TODO: your code here\n        require(employees[employeeId].addrOfEmployee == employeeId);\n        totalSalary = totalSalary.sub(employees[employeeId].salary);\n        partialPaid(employeeId);\n        delete employees[employeeId];\n    }\n\n    function changePaymentAddress(address oldAddress, address newAddress) public {\n        // TODO: your code here\n        require(oldAddress != newAddress);\n        assert(employees[newAddress].addrOfEmployee == 0x0);\n        assert(employees[oldAddress].addrOfEmployee == oldAddress);\n        employees[newAddress] = employees[oldAddress];\n        delete employees[oldAddress];\n    }\n\n    function updateEmployee(address employeeId, uint salary) public {\n        // TODO: your code here\n        assert(employees[employeeId].addrOfEmployee == employeeId);\n        partialPaid(employeeId);\n        totalSalary = totalSalary.sub(employees[employeeId].salary);\n        totalSalary = totalSalary.add(salary.mul(1 ether));\n        employees[employeeId].salary = salary.mul(1 ether);\n    }\n\n    function addFund() payable public returns (uint) {\n        return address(this).balance;\n    }\n\n    function calculateRunway() public view returns (uint) {\n        // TODO: your code here\n        return address(this).balance / total_salary;\n    }\n\n    function hasEnoughFund() public view returns (bool) {\n        // TODO: your code here\n        return calculateRunway() > 0;\n    }\n\n    function getPaid() public {\n        // TODO: your code here\n        require(msg.sender != 0x0);\n        assert(employees[msg.sender].addrOfEmployee == msg.sender);\n        Employee e = employees[msg.sender];\n        uint nextPayDay = e.lastPayday.add(payDuration);\n        assert(nextPayDay<now);\n        e.lastPayday = nextPayDay;\n        e.addrOfEmployee.transfer(e.salary);\n    }\n}\n",
  "sourcePath": "/Users/a212/Desktop/Team_E/Team_E/projects/lesson-4/contracts/Payroll.sol",
  "compiler": {
    "name": "solc",
    "version": "0.4.24+commit.e67f0147.Emscripten.clang"
  },
  "schemaVersion": "2.0.0",
  "updatedAt": "2018-07-02T03:51:55.459Z"
}