{
  "contractName": "Payroll",
  "abi": [
    {
      "inputs": [],
      "payable": true,
      "stateMutability": "payable",
      "type": "constructor"
    },
    {
      "constant": false,
      "inputs": [
        {
          "name": "employeeAddress",
          "type": "address"
        },
        {
          "name": "salary",
          "type": "uint256"
        }
      ],
      "name": "addEmployee",
      "outputs": [],
      "payable": false,
      "stateMutability": "nonpayable",
      "type": "function"
    },
    {
      "constant": false,
      "inputs": [
        {
          "name": "employeeId",
          "type": "address"
        }
      ],
      "name": "removeEmployee",
      "outputs": [],
      "payable": false,
      "stateMutability": "nonpayable",
      "type": "function"
    },
    {
      "constant": false,
      "inputs": [
        {
          "name": "employeeAddress",
          "type": "address"
        },
        {
          "name": "salary",
          "type": "uint256"
        }
      ],
      "name": "updateEmployee",
      "outputs": [],
      "payable": false,
      "stateMutability": "nonpayable",
      "type": "function"
    },
    {
      "constant": false,
      "inputs": [],
      "name": "addFund",
      "outputs": [
        {
          "name": "",
          "type": "uint256"
        }
      ],
      "payable": true,
      "stateMutability": "payable",
      "type": "function"
    },
    {
      "constant": true,
      "inputs": [],
      "name": "calculateRunway",
      "outputs": [
        {
          "name": "",
          "type": "uint256"
        }
      ],
      "payable": false,
      "stateMutability": "view",
      "type": "function"
    },
    {
      "constant": true,
      "inputs": [],
      "name": "hasEnoughFund",
      "outputs": [
        {
          "name": "",
          "type": "bool"
        }
      ],
      "payable": false,
      "stateMutability": "view",
      "type": "function"
    },
    {
      "constant": false,
      "inputs": [],
      "name": "getPaid",
      "outputs": [],
      "payable": false,
      "stateMutability": "nonpayable",
      "type": "function"
    },
    {
      "constant": true,
      "inputs": [],
      "name": "getEmployeeCount",
      "outputs": [
        {
          "name": "",
          "type": "uint256"
        }
      ],
      "payable": false,
      "stateMutability": "view",
      "type": "function"
    },
    {
      "constant": true,
      "inputs": [],
      "name": "getEmployeeSalary",
      "outputs": [
        {
          "name": "",
          "type": "uint256"
        }
      ],
      "payable": false,
      "stateMutability": "view",
      "type": "function"
    }
  ],
  "bytecode": "0x60806040526000600255336000806101000a81548173ffffffffffffffffffffffffffffffffffffffff021916908373ffffffffffffffffffffffffffffffffffffffff160217905550610bb7806100586000396000f300608060405260043610610099576000357c0100000000000000000000000000000000000000000000000000000000900463ffffffff16806323fed09e1461009e5780634ec19512146100cd5780635e91d8ec146100f8578063719b3f8814610145578063a2f09dfa14610170578063c2a63e3b1461018e578063cf41d6f8146101b9578063d108177a146101d0578063e7fd9a1314610213575b600080fd5b3480156100aa57600080fd5b506100b3610260565b604051808215151515815260200191505060405180910390f35b3480156100d957600080fd5b506100e2610271565b6040518082815260200191505060405180910390f35b34801561010457600080fd5b50610143600480360381019080803573ffffffffffffffffffffffffffffffffffffffff169060200190929190803590602001909291905050506102fd565b005b34801561015157600080fd5b5061015a6103ad565b6040518082815260200191505060405180910390f35b6101786103f9565b6040518082815260200191505060405180910390f35b34801561019a57600080fd5b506101a3610418565b6040518082815260200191505060405180910390f35b3480156101c557600080fd5b506101ce610425565b005b3480156101dc57600080fd5b50610211600480360381019080803573ffffffffffffffffffffffffffffffffffffffff16906020019092919050505061052e565b005b34801561021f57600080fd5b5061025e600480360381019080803573ffffffffffffffffffffffffffffffffffffffff169060200190929190803590602001909291905050506105de565b005b60008061026b610271565b11905090565b600080600090505b6001805490508110156102c35760018181548110151561029557fe5b9060005260206000209060030201600101546002600082825401925050819055508080600101915050610279565b6000600254141515156102d257fe5b6002543073ffffffffffffffffffffffffffffffffffffffff16318115156102f657fe5b0491505090565b610305610acb565b600080831215151561031657600080fd5b61031f846107c4565b915091506000826000015173ffffffffffffffffffffffffffffffffffffffff161415151561034a57fe5b61035382610909565b670de0b6b3a7640000830260018281548110151561036d57fe5b9060005260206000209060030201600101819055504260018281548110151561039257fe5b90600052602060002090600302016002018190555050505050565b60006103b7610acb565b60006103c2336107c4565b915091506000826000015173ffffffffffffffffffffffffffffffffffffffff16141515156103ed57fe5b81602001519250505090565b60003073ffffffffffffffffffffffffffffffffffffffff1631905090565b6000600180549050905090565b61042d610acb565b600080610439336107c4565b925092506000836000015173ffffffffffffffffffffffffffffffffffffffff161415151561046457fe5b600a8360400151019050428110151561047957fe5b8060018381548110151561048957fe5b9060005260206000209060030201600201819055506001828154811015156104ad57fe5b906000526020600020906003020160000160009054906101000a900473ffffffffffffffffffffffffffffffffffffffff1673ffffffffffffffffffffffffffffffffffffffff166108fc84602001519081150290604051600060405180830381858888f19350505050158015610528573d6000803e3d6000fd5b50505050565b610536610acb565b60008060009054906101000a900473ffffffffffffffffffffffffffffffffffffffff1673ffffffffffffffffffffffffffffffffffffffff163373ffffffffffffffffffffffffffffffffffffffff1614151561059357600080fd5b61059c836107c4565b915091506000826000015173ffffffffffffffffffffffffffffffffffffffff16141515156105c757fe5b6105d082610909565b6105d98161099b565b505050565b6105e6610acb565b60008060009054906101000a900473ffffffffffffffffffffffffffffffffffffffff1673ffffffffffffffffffffffffffffffffffffffff163373ffffffffffffffffffffffffffffffffffffffff1614151561064357600080fd5b6000831215151561065357600080fd5b670de0b6b3a764000083029250610669846107c4565b915091506000826000015173ffffffffffffffffffffffffffffffffffffffff1614156107525760016060604051908101604052808673ffffffffffffffffffffffffffffffffffffffff168152602001858152602001428152509080600181540180825580915050906001820390600052602060002090600302016000909192909190915060008201518160000160006101000a81548173ffffffffffffffffffffffffffffffffffffffff021916908373ffffffffffffffffffffffffffffffffffffffff16021790555060208201518160010155604082015181600201555050506107be565b8160200151831415156107bd5761076882610909565b4260018281548110151561077857fe5b906000526020600020906003020160020181905550670de0b6b3a764000083026001828154811015156107a757fe5b9060005260206000209060030201600101819055505b5b50505050565b6107cc610acb565b600080600090505b600180549050811015610902578373ffffffffffffffffffffffffffffffffffffffff1660018281548110151561080757fe5b906000526020600020906003020160000160009054906101000a900473ffffffffffffffffffffffffffffffffffffffff1673ffffffffffffffffffffffffffffffffffffffff1614156108f55760018181548110151561086457fe5b90600052602060002090600302018181606060405190810160405290816000820160009054906101000a900473ffffffffffffffffffffffffffffffffffffffff1673ffffffffffffffffffffffffffffffffffffffff1673ffffffffffffffffffffffffffffffffffffffff16815260200160018201548152602001600282015481525050915092509250610903565b80806001019150506107d4565b5b50915091565b600080826000015173ffffffffffffffffffffffffffffffffffffffff161415151561093157fe5b600a8260400151420383602001510281151561094957fe5b049050816000015173ffffffffffffffffffffffffffffffffffffffff166108fc829081150290604051600060405180830381858888f19350505050158015610996573d6000803e3d6000fd5b505050565b6001818154811015156109aa57fe5b9060005260206000209060030201600080820160006101000a81549073ffffffffffffffffffffffffffffffffffffffff0219169055600182016000905560028201600090555050600180808054905003815481101515610a0757fe5b9060005260206000209060030201600182815481101515610a2457fe5b90600052602060002090600302016000820160009054906101000a900473ffffffffffffffffffffffffffffffffffffffff168160000160006101000a81548173ffffffffffffffffffffffffffffffffffffffff021916908373ffffffffffffffffffffffffffffffffffffffff160217905550600182015481600101556002820154816002015590505060018081818054905003915081610ac79190610b03565b5050565b606060405190810160405280600073ffffffffffffffffffffffffffffffffffffffff16815260200160008152602001600081525090565b815481835581811115610b3057600302816003028360005260206000209182019101610b2f9190610b35565b5b505050565b610b8891905b80821115610b8457600080820160006101000a81549073ffffffffffffffffffffffffffffffffffffffff02191690556001820160009055600282016000905550600301610b3b565b5090565b905600a165627a7a72305820f31cda9ea2cf76fd8723d3866b69e4cef12545fb1b6b1cd1e829bbd55ef2b9500029",
  "source": "pragma solidity ^0.4.14;\n\ncontract Payroll {\n\nuint constant payDuration = 10 seconds;\n\n    struct Employee {\n        // TODO: your code here\n        address addrOfEmployee;\n        uint salary;\n        uint lastPayday;\n    }\n\n    address addrOfowner;\n    Employee[] employees;\n    uint totalSalary = 0;\n\n    //构造函数\n    function Payroll() payable public {\n        addrOfowner = msg.sender;\n    }\n    \n    modifier onlyOwner() {\n        require(msg.sender == addrOfowner);\n        _;\n    }\n\n    function partialPaid(Employee employee) private {\n        assert(employee.addrOfEmployee != 0x0);\n         uint partialdPaid = employee.salary * (now - employee.lastPayday)/payDuration;\n         employee.addrOfEmployee.transfer(partialdPaid);\n\n    }\n\n    function findEmployee(address addrOfEmployee) internal returns (Employee,uint) {\n        for(uint i=0; i < employees.length; i++) {\n            if( employees[i].addrOfEmployee == addrOfEmployee) {\n                return (employees[i],i);\n            }\n        }\n    }\n    \n    function deleteEmployee(uint index) internal {\n        delete employees[index];\n        employees[index] = employees[employees.length -1];\n        employees.length -= 1;\n    }\n\n    function addEmployee(address employeeAddress, uint salary) public onlyOwner {\n        require(int(salary) >= 0);\n        // TODO: your code here\n        salary = salary * 1 ether;\n        var (employee,index) = findEmployee(employeeAddress);\n        \n        if(employee.addrOfEmployee == 0x0) {\n            employees.push(Employee(employeeAddress,salary,now));\n        } else {\n            if(salary != employee.salary) {\n                partialPaid(employee);\n                employees[index].lastPayday = now;\n                employees[index].salary = salary * 1 ether;\n            }\n        }\n    }\n\n    function removeEmployee(address employeeId) public onlyOwner {\n        // TODO: your code here\n        var (employee,index) = findEmployee(employeeId);\n        assert(employee.addrOfEmployee != 0x0);\n\n        partialPaid(employee);\n        deleteEmployee(index);\n    }\n\n    function updateEmployee(address employeeAddress, uint salary) public {\n        require(int(salary) >= 0);\n        // TODO: your code here\n        var (employee,index) = findEmployee(employeeAddress);\n        assert(employee.addrOfEmployee != 0x0);\n        partialPaid(employee);\n        employees[index].salary = salary * 1 ether;\n        employees[index].lastPayday = now;\n    }\n\n    //存入工资\n    function addFund() payable public returns (uint) {\n        return address(this).balance;\n    }\n\n    function calculateRunway() public view returns (uint) {\n        // TODO: your code here\n        \n        for(uint i=0;i<employees.length;i++) {\n            totalSalary += employees[i].salary;\n        }\n        assert(totalSalary!=0);\n        return this.balance/totalSalary;\n    }\n\n    function hasEnoughFund() public view returns (bool) {\n        return calculateRunway() > 0;\n    }\n\n    function getPaid() public {\n        // TODO: your code here\n        var (employee,index) = findEmployee(msg.sender);\n        assert(employee.addrOfEmployee != 0x0);\n\n        uint nextPayday = employee.lastPayday + payDuration;\n        assert(nextPayday < now);\n\n        employees[index].lastPayday = nextPayday;\n        employees[index].addrOfEmployee.transfer(employee.salary);\n    }\n    \n    function getEmployeeCount() public view returns (uint) {\n        return employees.length;\n    }\n    \n    function getEmployeeSalary() public view returns (uint) {\n        var(employee,index) = findEmployee(msg.sender);\n        assert(employee.addrOfEmployee != 0x0);\n        return employee.salary;\n    }\n}\n\n",
  "sourcePath": "/Users/a212/Desktop/Team_E/Team_E/projects/lesson-2/contracts/Payroll.sol",
  "compiler": {
    "name": "solc",
    "version": "0.4.24+commit.e67f0147.Emscripten.clang"
  },
  "schemaVersion": "2.0.0",
  "updatedAt": "2018-06-26T09:10:08.802Z"
}